:020000040800F2
:100000000050002021020008270200082B020008EF
:100010009D020008A1020008E9020008000000009B
:100020000000000000000000000000003103000894
:100030003503000800000000390300083D030008F4
:100040004D0300084D0300084D0300084D03000850
:100050004D0300084D0300084D0300084D03000840
:100060004D0300084D0300084D0300084D03000830
:100070004D0300084D0300084D0300084D03000820
:100080004D0300084D0300084D0300084D03000810
:100090004D0300084D0300084D0300084D03000800
:1000A0004D0300084D0300084D0300084D030008F0
:1000B0004D0300084D0300084D0300084D030008E0
:1000C0004D0300084D0300084D0300084D030008D0
:1000D0004D0300084D0300084D0300084D030008C0
:1000E0004D0300084D0300084D0300080000000008
:1000F0000000000000000000000000000000000000
:1001000000000000000000005FF808F100B583B0B7
:1001100000F0ECFA304B314A1360314A1360314B36
:10012000314A03E052F8041B43F8041B2F498B4269
:10013000F8D32A4B1A682E4B9A4200D0FEE7284B80
:100140001A682C4B9A42F9D1234B2B4A13602B4A45
:1001500013602B4B02E0002243F8042B294A934200
:10016000F9D3254B1B6813B9244B1B6803B1FEE779
:1001700000F0C8FA694601A800F048FA224C234B67
:10018000E41AA410002504E0204B53F825309847CA
:100190000135AC42F8DC1E4C1E4BE41AA4100025BD
:1001A00004E01C4B53F8253098470135AC42F8DC8D
:1001B0000099019800F044FC0546174C174BE41ACF
:1001C000A41004E0013C154B53F824309847002C50
:1001D000F8DC284600F0ECF9BABADECA00000020CC
:1001E0008400002000000020A015000888000020E6
:1001F0007856341232547698880000202C01002062
:1002000088000020300100207803000878030008EF
:1002100078030008780300087803000878030008D2
:1002200008B5FFF773FF00BEFEE71EF0040F0CBF1A
:10023000EFF30880EFF309807146414A10472DE93A
:10024000F04182B004468846124B5E6B9F6B9D6AFC
:100250001B6B13F0020F03D00E4BDB6A002B0CDB81
:100260000D4800F0E5F9CDF800803B4632462946BE
:10027000204600F04BFA00BEFEE74BF6AB6100F003
:10028000BFFA0028ECD0034B4FF00042DA6202B014
:10029000BDE8F08100ED00E04015000800BEFEE77B
:1002A0001EF0040F0CBFEFF30880EFF309807146D6
:1002B000244A10472DE9F04182B004468846084B95
:1002C0005E6B9F6B9D6A074800F0B2F9CDF8008025
:1002D0003B4632462946204600F018FA00BEFEE7AB
:1002E00000ED00E0501500081EF0040F0CBFEFF306
:1002F0000880EFF309807146134A10472DE9F04159
:1003000082B004468846084B5E6B9F6B9D6A074827
:1003100000F08EF9CDF800803B4632462946204653
:1003200000F0F4F900BEFEE700ED00E05C15000807
:1003300000BEFEE700BEFEE700BEFEE7704700001D
:100340003F020008B5020008FD02000800BEFEE7FB
:10035000A01500080000002088000020A01500085B
:100360000000000000000000880000203001002094
:08037000000000000000000085
:10037800F8B505460C46494B98421BD003F58063F7
:10038800984217D003F58063984213D003F5806331
:1003980098420FD003F5806398420BD003F5806331
:1003A800984207D003F58063984203D0B2213C48B5
:1003B80000F030F9E3786BB1042B0BD0282B09D06F
:1003C800482B07D0142B05D0102B03D01C2B01D0A1
:1003D800182B14D12388BBB1E37803F00F063046FD
:1003E80013F0100F06D0A378013BDBB2022B10D814
:1003F800A078304323785BB32E68002310E0B32144
:10040800274800F007F9E5E7B421254800F002F98C
:10041800E2E7BB21224800F0FDF8E9E76A61013311
:10042800072B14D801229A40218832EA0101F6D11B
:1004380099000F278F4026EA070600FA01F10E43BC
:10044800E1782829EAD04829E9D12A61E7E72E602E
:100458002388FF2B20D96E68002302E06A6115E02B
:100468000133072B17D803F1080101228A4021889C
:1004780032EA0101F4D199000F278F4026EA0706D6
:1004880000FA01F10E43E1782829E7D0E1784829FC
:10049800E6D12A61E4E76E60F8BD00BF00080140BC
:1004A8008013000838B504460D462A4B98421CD0E4
:1004B80003F58063984218D003F58063984214D0FE
:1004C80003F58063984210D003F5806398420CD0FE
:1004D80003F58063984208D003F58063984204D0FE
:1004E8004FF48F711C4800F095F86B1E9BB2012BDE
:1004F80023D9042D21D0082D1FD0102D1DD0202D3B
:100508001BD0402D19D0802D17D0B5F5807F14D081
:10051800B5F5007F11D0B5F5806F0ED0B5F5006F39
:100528000BD0B5F5805F08D0B5F5005F05D0B5F5FF
:10053800804F02D0B5F5004F04D1A3681D4207D003
:10054800012038BD40F21F11034800F063F8F4E7BA
:100558000020F6E7000801408013000838B504467B
:100568000D460E4B034003B920B940F24A410C48EE
:1005780000F050F8012D05D855B10A4A93691C437B
:10058800946138BD40F24B41054800F043F8F3E769
:10059800044A936923EA04049461F2E70200C0FF65
:1005A800B413000800100240FEE7000008B5034835
:1005B80000F054F80120FFF7F7FF00BFE41300082C
:1005C80008B503460C4A12685AB10B4A106803333F
:1005D80023F003030344094A934206D8064A1360EA
:1005E80008BD054A06491160EFE700F075FA0C23CB
:1005F80003604FF0FF30F3E78C000020004C002030
:100608003001002001230360014B0B60704700BFDD
:100618000400002008B50A460146024800F004F824
:10062800FFF7C4FFF81300080FB400B583B004AB9C
:1006380053F8042B01938021074800F087FA00281B
:1006480004DC03B05DF804EB04B0704701460248CF
:1006580000F044F8F5E700BF9400002010B5044608
:1006680000F040FA0146204600F038F8012102481F
:1006780000F034F810BD00BFBC1400082DE9F043A9
:1006880085B004460F46435633BB04252846214609
:10069800ABBE0446384605B0BDE8F08304AA13444F
:1006A800002203F8102C4FF00408E946404649465A
:1006B800ABBE8046761B002EECD03546102E28BFE8
:1006C80010250023AB42E9D214F9011B04AA1A44ED
:1006D80002F8101C0133F5E70E46ECE708B5FFF702
:1006E800CDFF08BD08B500F0FDF8024A024B9A603C
:1006F80008BD00BF0000000800ED00E008B500F0EC
:1007080019F908BDF8B504460D4617461E46274890
:10071800FFF78AFF21682648FFF786FF61682548AA
:10072800FFF782FFA1682448FFF77EFFE1682348AE
:10073800FFF77AFF21692248FFF776FF61692148B0
:10074800FFF772FFA1692048FFF76EFFE1691F48B4
:10075800FFF76AFF1E48FFF767FF29461D48FFF7A6
:1007680063FF1D4CE16A1D48FFF75EFF216B1C48C3
:10077800FFF75AFFE16B1B48FFF756FF15F0800F94
:100788000AD115F4004F0CD11748FFF74DFF069911
:100798001648FFF749FFF8BD39461548FFF744FFEB
:1007A800EFE731461348FFF73FFFEDE72414000851
:1007B8003414000844140008541400086414000891
:1007C800741400088414000894140008A414000881
:1007D800B4140008C014000800ED00E0D0140008AC
:1007E800E0140008F0140008201500082815000877
:1007F800001500081015000883691A888A4201D07C
:10080800002070470268033A012A01D90020704786
:10081800023383610120704782B000230193009363
:100828002C4A136843F4803313602A4B1B6803F483
:1008380000330093019B01330193009B1BB9019B7B
:10084800B3F5A06FF1D1234B1B6813F4003F06D01A
:1008580001230093009B012B04D002B070470023B2
:100868000093F7E71C4B1A6842F010021A601A68E6
:1008780022F003021A601A6842F002021A60A3F515
:1008880080535A685A605A685A605A6842F48062BB
:100898005A605A6822F47C125A605A6842F4E81284
:1008A8005A601A6842F080721A600A4B1B6813F08B
:1008B800007FFAD0074B5A6822F003025A605A6840
:1008C80042F002025A60034B5B6803F00C03082BEA
:1008D800F9D1C2E7001002400020024008B5FFF736
:1008E8009BFF08BD08B5104B1A6842F001021A6058
:1008F80059680E4A0A405A601A6822F0847222F433
:1009080080321A601A6822F480221A605A6822F427
:10091800FE025A604FF41F029A60FFF7DFFF044B94
:100928004FF000629A6008BD001002400000FFF816
:1009380000ED00E01F4B5B6803F00C03042B15D09F
:10094800082B17D01BB11C4B1C4A1A6002E01A4B2B
:100958001A4A1A60174B5B68C3F30313184AD35C2F
:10096800DAB215490B68D3400B607047124B134A33
:100978001A60EFE70F4A53685268C3F383430233A0
:1009880012F4803F05D10F4A02FB03F30A4A1360B1
:10099800E0E7084A526812F4003F05D0094A02FB12
:1009A80003F3054A1360D5E7044A02FB03F3024A3E
:1009B8001360CFE7001002401C00002000127A00EC
:1009C8000C00002000093D0010B582B0044608461E
:1009D8002160A280ADF8042048238DF80730012358
:1009E8008DF8063001A9FFF7C3FC204602B010BD00
:1009F80008B581880068FFF755FDB0FA80F0400916
:100A080008BD10B582B0044608462160A280ADF842
:100A1800042010238DF8073001238DF8063001A932
:100A2800FFF7A6FC204602B010BD0268D368818893
:100A38004B40D3607047000070B58AB00121042094
:100A4800FFF78CFD01210820FFF788FD1F4C4FF4AC
:100A58000072214608A8FFF7D4FF4FF480722146A0
:100A680006A8FFF7CEFF2022214604A8FFF7C9FFFA
:100A7800A4F580640422214602A8FFF7A5FF0822F6
:100A880021466846FFF7A0FF0024114D0DE008A895
:100A9800FFF7CBFF06A8FFF7C8FF04A8FFF7C5FFBD
:100AA800002405E008B105B1013D0134A542EED9A5
:100AB80002A8FFF79DFF06466846FFF799FF002E3C
:100AC800F0D0044B9D42F0D80135EEE7000C014010
:100AD80090D003009F252600014B1868704700BF7F
:100AE80020000020034613F8012B002AFBD1181A16
:100AF8000138704730B5141E05469BB0184605DA14
:100B08008B234FF0FF302B601BB030BD4FF40273C6
:100B1800ADF80C300CBF234604F1FF330293059364
:100B28004FF6FF7300910491ADF80E3002461E9BFC
:100B38006946284600F074F8431CBCBF8B232B6021
:100B4800002CE1D00022009B1A70DDE707B5009366
:100B580013460A46014603480068FFF7CBFF03B077
:100B68005DF804FB200000202DE9F0478E688246DE
:100B78009E420C469146984638D8B1F80CC01CF4F1
:100B8800906F31D062692568096902EB42026F1AD9
:100B980002EBD272013355103B449D4238BF1D46CB
:100BA8001CF4806F30D0294600F040FB064650B94F
:100BB8000C234FF0FF30CAF80030A38943F04003FC
:100BC800A381BDE8F0873A46216900F0BBFAA38902
:100BD80023F4906343F08003A38126613E4426609A
:100BE80046466561ED1BA560464500D94646324636
:100BF8004946206800F0B4FAA36800209B1BA36054
:100C080023681E442660DCE72A4600F069FB064696
:100C18000028E2D12169504600F0BCFAC8E700007C
:100C28002DE9F04F1E468B899DB01B0607460D46E1
:100C380014460ED50B6963B9402100F0F7FA286015
:100C4800286120B90C233B604FF0FF30C9E04023F6
:100C58006B610023099320238DF8293030234FF04E
:100C6800010ADFF898918DF82A30039623461E462C
:100C780013F8012B0AB1252AF9D1B6EB040B0BD0D6
:100C88005B46224629463846FFF76EFF013000F0E2
:100C9800A380099B5B4409933378002B00F09C8068
:100CA80000234FF0FF32CDE9052301360493079363
:100CB8008DF853301A933446052214F8011B4F4817
:100CC80000F032FA049BC0B9D90644BF20228DF83F
:100CD80053201A0744BF2B228DF8532032782A2A32
:100CE80013D0344600200A26079A214611F8013B02
:100CF800303B092B4BD970B914E0A0EB09000AFA74
:100D080000F0184304902646D5E7039A111D12688F
:100D18000391002A01DB079204E0524243F00203E8
:100D28000792049323782E2B0CD163782A2B33D186
:100D3800039B02341A1D1B680392002BB8BF4FF0A7
:100D4800FF3305932E4E03222178304600F0ECF94C
:100D580038B14023801B03FA00F0049B013403439D
:100D6800049314F8011B062226488DF8281000F079
:100D7800DBF9002838D0244B13BB039B073323F03F
:100D8800070308330393099B434409936EE706FB63
:100D9800023201200C46A8E700230A26194601342E
:100DA8000593204610F8012B303A092A03D9002B65
:100DB800C8D00591C6E706FB012101230446F0E7E8
:100DC80003AB00932A46114B04A93846AFF30080C1
:100DD800B0F1FF3F8046D6D1AB895B063FF534AF13
:100DE80009981DB0BDE8F08F03AB00932A46074B66
:100DF80004A9384600F082F8EAE700BF6C1500083D
:100E0800721500087615000800000000710B000834
:100E18002DE9F04791461F468A680B6906469342BA
:100E2800B8BF1346C9F8003091F843200C46DDF8E6
:100E3800208012B10133C9F800302368990642BFF7
:100E4800D9F800300233C9F80030256815F00605D6
:100E580007D104F1190AE368D9F800209B1AAB42BC
:100E680029DC94F843302268003318BF0123920626
:100E78002ED404F1430239463046C047013021D010
:100E88002368E56803F00603042B18BF0025D9F88A
:100E980000204FF0000908BFAD1AA368226908BFF7
:100EA80025EAE5759342C4BF9B1AED181A344D45DF
:100EB8001AD1002008E00123524639463046C0477F
:100EC800013003D14FF0FF30BDE8F0870135C2E7AC
:100ED8003020E11881F843005A1C94F84510224448
:100EE800023382F84310C4E70123224639463046CC
:100EF800C0470130E6D009F10109D8E72DE9F043F0
:100F080006460C4601F14300097E85B06E299846D5
:100F180017460C9B00F0BB8024D8632939D00AD827
:100F2800002900F0C480582900F0928004F142059D
:100F380084F8421035E0642901D06929F6D1256882
:100F48001A6815F0800F02F104012CD0126819609C
:100F5800002A03DA2D23524284F84330DFF8C0C157
:100F68000A233FE0732900F0A68008D86F2921D012
:100F78007029DBD1226842F02002226003E0752943
:100F880018D07829D2D17822DFF898C184F8452082
:100F980062E01A6804F14205111D1960136884F8AB
:100FA8004230012394E0126815F0400F196018BF11
:100FB80012B2CDE7D4F800C01A681CF0800F02F115
:100FC80004051D6001D0126803E01CF0400FFAD040
:100FD80012886F290CBF08230A23DFF844C10021B7
:100FE80084F843106568002DA8BF2168A560A4BFD8
:100FF80021F0040121600AB9002D46D00546B2FB54
:10100800F3F103FB112E1CF80EE0934205F801EDF5
:1010180039D9082B0BD12368DA0708D52369626808
:101028009A42DEBF302305F8013C05F1FF35401B2D
:101038002061CDF800803B4603AA21463046FFF7E1
:10104800E7FE013049D14FF0FF3005B0BDE8F0832D
:10105800DFF8CCC084F845101D68216855F8042BCA
:101068001D600D060BD5CD0744BF41F0200121605E
:101078001AB9236823F0200323601023AFE74B0637
:1010880048BF92B2EFE70A46B9E70546C1E71A68D2
:10109800D4F800C0151D61691CF0800F1D6013682D
:1010A80001D0196003E01CF0400FFAD0198000232A
:1010B80005462361BDE71A68111D196015680021EE
:1010C8006268284600F030F808B1401B6060636829
:1010D8002361002384F84330ABE723692A46394665
:1010E8003046C0470130AED023689B0713D4E06870
:1010F800039B9842B8BF1846A7E701234A463946DA
:101108003046C04701309ED00135E368039A9B1AE8
:10111800AB42F2DCEBE7002504F11909F5E700BF63
:101128007D1500088E15000810B5C9B2024490421A
:10113800034601D1002303E01C7801308C42F6D12C
:10114800184610BD0A44914200F1FF3300D17047A0
:1011580010B511F8014B914203F8014FF9D110BDB8
:10116800884210B501EB020302D983421C4607D816
:10117800421E994208D011F8014B02F8014FF8E7D6
:1011880083189A1A9A4200D110BD14F8011D03F869
:10119800011DF7E738B50546002943D051F8043C4E
:1011A8000C1F002BB8BFE41800F0D0F81E4A1368D3
:1011B800104633B9636014602846BDE8384000F033
:1011C800CBB8A3420BD921686218934201BF1A68B1
:1011D8005B685218226063600460EDE713465A6842
:1011E8000AB1A242FAD919685818A0420BD120684E
:1011F8000144581882421960DED1106852680144CF
:1012080019605A60D8E702D90C232B60D4E720680C
:1012180021188A4201BF116852680918216062606A
:101228005C60C9E738BD00BF14010020F8B5CD1CCB
:1012380025F0030508350C2D38BF0C25002D064672
:1012480001DBA94203D90C2333600020F8BD00F06C
:101258007DF821490A6814469CB9204F3B6823B998
:101268002146304600F062F838602946304600F0E2
:101278005DF8431C23D10C233046336000F06CF832
:10128800E3E723685B1B17D40B2B03D923601C44AB
:10129800256004E06368A2420CBF0B6053603046CF
:1012A80000F05AF804F10B00231D20F00700C21AC1
:1012B800CCD01B1AA350C9E722466468CCE7C41CEB
:1012C80024F00304A042E3D0211A304600F02EF89F
:1012D8000130DDD1CFE700BF140100201801002044
:1012E800F8B5074614460E4621B91146BDE8F84040
:1012F800FFF79CBF22B9FFF74DFF25462846F8BDEA
:1013080000F030F8A0420FD221463846FFF78EFF92
:1013180005460028F2D031462246FFF713FF314632
:101328003846FFF737FFE9E73546E7E738B50023E2
:10133800054C054608462360FFF742F9431C02D1D5
:10134800236803B12B6038BD1C010020014800F060
:1013580011B800BF24010020014800F00CB800BFFC
:101368002401002051F8043C181F002BBCBF0B5867
:10137800C0187047704770472E2E2F7379737465A5
:101388006D2F7372632F73746D333266312D7374DE
:10139800647065726970682F73746D3332663130AA
:1013A800785F6770696F2E63000000002E2E2F7320
:1013B800797374656D2F7372632F73746D3332662E
:1013C800312D7374647065726970682F73746D332E
:1013D80032663130785F7263632E630061626F72C8
:1013E8007428292C2065786974696E672E2E2E0062
:1013F8006173736572745F706172616D282920660C
:1014080061696C65643A2066696C652022257322DF
:101418002C206C696E652025640A00005374616392
:101428006B206672616D653A0A0000002052302018
:101438003D2020253038580A000000002052312075
:101448003D2020253038580A000000002052322064
:101458003D2020253038580A000000002052332053
:101468003D2020253038580A000000002052313233
:10147800203D20253038580A00000000204C52201A
:101488003D2020253038580A000000002050432015
:101498003D2020253038580A0000000020505352C3
:1014A800203D20253038580A000000004653522FAE
:1014B8004641523A0A0000002043465352203D203C
:1014C80020253038580A00002048465352203D2035
:1014D80020253038580A00002044465352203D2029
:1014E80020253038580A00002041465352203D201C
:1014F80020253038580A0000204D4D464152203DE5
:1015080020253038580A00002042464152203D200C
:1015180020253038580A00004D6973630A0000001E
:10152800204C522F4558435F52455455524E3D204A
:10153800253038580A0000005B48617264466175BE
:101548006C745D0A000000005B4275734661756C3F
:10155800745D0A005B55736167654661756C745DFF
:101568000A000000232D302B2000686C4C006566B3
:1015780067454647003031323334353637383941DC
:1015880042434445460030313233343536373839F2
:0715980061626364656600F7
:1015A0007856341290000020000000000000000077
:1015B00000000000010203040607080900A24A0413
:1015C00024000020000000000000000000000000D7
:1015D000000000000000000000000000000000000B
:1015E00000000000000000000000000000000000FB
:1015F00000000000000000000000000000000000EB
:1016000000000000000000000000000000000000DA
:1016100000000000000000000000000000000000CA
:0816200000000000325476982E
:040000050800010DE1
:00000001FF
